{
  "_format": "hh-sol-artifact-1",
  "contractName": "MyNFT",
  "sourceName": "contracts/MyNFT.sol",
  "abi": [
    {
      "inputs": [],
      "stateMutability": "nonpayable",
      "type": "constructor"
    },
    {
      "anonymous": false,
      "inputs": [
        {
          "indexed": true,
          "internalType": "address",
          "name": "owner",
          "type": "address"
        },
        {
          "indexed": true,
          "internalType": "address",
          "name": "approved",
          "type": "address"
        },
        {
          "indexed": true,
          "internalType": "uint256",
          "name": "tokenId",
          "type": "uint256"
        }
      ],
      "name": "Approval",
      "type": "event"
    },
    {
      "anonymous": false,
      "inputs": [
        {
          "indexed": true,
          "internalType": "address",
          "name": "owner",
          "type": "address"
        },
        {
          "indexed": true,
          "internalType": "address",
          "name": "operator",
          "type": "address"
        },
        {
          "indexed": false,
          "internalType": "bool",
          "name": "approved",
          "type": "bool"
        }
      ],
      "name": "ApprovalForAll",
      "type": "event"
    },
    {
      "anonymous": false,
      "inputs": [
        {
          "indexed": false,
          "internalType": "uint256",
          "name": "_fromTokenId",
          "type": "uint256"
        },
        {
          "indexed": false,
          "internalType": "uint256",
          "name": "_toTokenId",
          "type": "uint256"
        }
      ],
      "name": "BatchMetadataUpdate",
      "type": "event"
    },
    {
      "anonymous": false,
      "inputs": [
        {
          "indexed": false,
          "internalType": "uint256",
          "name": "_tokenId",
          "type": "uint256"
        }
      ],
      "name": "MetadataUpdate",
      "type": "event"
    },
    {
      "anonymous": false,
      "inputs": [
        {
          "indexed": true,
          "internalType": "address",
          "name": "previousOwner",
          "type": "address"
        },
        {
          "indexed": true,
          "internalType": "address",
          "name": "newOwner",
          "type": "address"
        }
      ],
      "name": "OwnershipTransferred",
      "type": "event"
    },
    {
      "anonymous": false,
      "inputs": [
        {
          "indexed": true,
          "internalType": "address",
          "name": "from",
          "type": "address"
        },
        {
          "indexed": true,
          "internalType": "address",
          "name": "to",
          "type": "address"
        },
        {
          "indexed": true,
          "internalType": "uint256",
          "name": "tokenId",
          "type": "uint256"
        }
      ],
      "name": "Transfer",
      "type": "event"
    },
    {
      "inputs": [
        {
          "internalType": "address",
          "name": "to",
          "type": "address"
        },
        {
          "internalType": "uint256",
          "name": "tokenId",
          "type": "uint256"
        }
      ],
      "name": "approve",
      "outputs": [],
      "stateMutability": "nonpayable",
      "type": "function"
    },
    {
      "inputs": [
        {
          "internalType": "address",
          "name": "owner",
          "type": "address"
        }
      ],
      "name": "balanceOf",
      "outputs": [
        {
          "internalType": "uint256",
          "name": "",
          "type": "uint256"
        }
      ],
      "stateMutability": "view",
      "type": "function"
    },
    {
      "inputs": [
        {
          "internalType": "uint256",
          "name": "tokenId",
          "type": "uint256"
        }
      ],
      "name": "getApproved",
      "outputs": [
        {
          "internalType": "address",
          "name": "",
          "type": "address"
        }
      ],
      "stateMutability": "view",
      "type": "function"
    },
    {
      "inputs": [
        {
          "internalType": "address",
          "name": "owner",
          "type": "address"
        },
        {
          "internalType": "address",
          "name": "operator",
          "type": "address"
        }
      ],
      "name": "isApprovedForAll",
      "outputs": [
        {
          "internalType": "bool",
          "name": "",
          "type": "bool"
        }
      ],
      "stateMutability": "view",
      "type": "function"
    },
    {
      "inputs": [
        {
          "internalType": "address",
          "name": "recipient",
          "type": "address"
        },
        {
          "internalType": "string",
          "name": "tokenURI",
          "type": "string"
        },
        {
          "internalType": "uint256",
          "name": "royaltiesPercentage",
          "type": "uint256"
        }
      ],
      "name": "mintNFT",
      "outputs": [
        {
          "internalType": "uint256",
          "name": "",
          "type": "uint256"
        }
      ],
      "stateMutability": "nonpayable",
      "type": "function"
    },
    {
      "inputs": [],
      "name": "name",
      "outputs": [
        {
          "internalType": "string",
          "name": "",
          "type": "string"
        }
      ],
      "stateMutability": "view",
      "type": "function"
    },
    {
      "inputs": [],
      "name": "owner",
      "outputs": [
        {
          "internalType": "address",
          "name": "",
          "type": "address"
        }
      ],
      "stateMutability": "view",
      "type": "function"
    },
    {
      "inputs": [
        {
          "internalType": "uint256",
          "name": "tokenId",
          "type": "uint256"
        }
      ],
      "name": "ownerOf",
      "outputs": [
        {
          "internalType": "address",
          "name": "",
          "type": "address"
        }
      ],
      "stateMutability": "view",
      "type": "function"
    },
    {
      "inputs": [],
      "name": "renounceOwnership",
      "outputs": [],
      "stateMutability": "nonpayable",
      "type": "function"
    },
    {
      "inputs": [
        {
          "internalType": "address",
          "name": "from",
          "type": "address"
        },
        {
          "internalType": "address",
          "name": "to",
          "type": "address"
        },
        {
          "internalType": "uint256",
          "name": "tokenId",
          "type": "uint256"
        }
      ],
      "name": "safeTransferFrom",
      "outputs": [],
      "stateMutability": "nonpayable",
      "type": "function"
    },
    {
      "inputs": [
        {
          "internalType": "address",
          "name": "from",
          "type": "address"
        },
        {
          "internalType": "address",
          "name": "to",
          "type": "address"
        },
        {
          "internalType": "uint256",
          "name": "tokenId",
          "type": "uint256"
        },
        {
          "internalType": "bytes",
          "name": "data",
          "type": "bytes"
        }
      ],
      "name": "safeTransferFrom",
      "outputs": [],
      "stateMutability": "nonpayable",
      "type": "function"
    },
    {
      "inputs": [
        {
          "internalType": "address",
          "name": "operator",
          "type": "address"
        },
        {
          "internalType": "bool",
          "name": "approved",
          "type": "bool"
        }
      ],
      "name": "setApprovalForAll",
      "outputs": [],
      "stateMutability": "nonpayable",
      "type": "function"
    },
    {
      "inputs": [
        {
          "internalType": "bytes4",
          "name": "interfaceId",
          "type": "bytes4"
        }
      ],
      "name": "supportsInterface",
      "outputs": [
        {
          "internalType": "bool",
          "name": "",
          "type": "bool"
        }
      ],
      "stateMutability": "view",
      "type": "function"
    },
    {
      "inputs": [],
      "name": "symbol",
      "outputs": [
        {
          "internalType": "string",
          "name": "",
          "type": "string"
        }
      ],
      "stateMutability": "view",
      "type": "function"
    },
    {
      "inputs": [
        {
          "internalType": "uint256",
          "name": "tokenId",
          "type": "uint256"
        }
      ],
      "name": "tokenURI",
      "outputs": [
        {
          "internalType": "string",
          "name": "",
          "type": "string"
        }
      ],
      "stateMutability": "view",
      "type": "function"
    },
    {
      "inputs": [
        {
          "internalType": "address",
          "name": "from",
          "type": "address"
        },
        {
          "internalType": "address",
          "name": "to",
          "type": "address"
        },
        {
          "internalType": "uint256",
          "name": "tokenId",
          "type": "uint256"
        }
      ],
      "name": "transferFrom",
      "outputs": [],
      "stateMutability": "nonpayable",
      "type": "function"
    },
    {
      "inputs": [
        {
          "internalType": "address",
          "name": "newOwner",
          "type": "address"
        }
      ],
      "name": "transferOwnership",
      "outputs": [],
      "stateMutability": "nonpayable",
      "type": "function"
    }
  ],
  "bytecode": "0x60806040523480156200001157600080fd5b506040518060400160405280600a81526020017f436f6465204561746572000000000000000000000000000000000000000000008152506040518060400160405280600381526020017f4345520000000000000000000000000000000000000000000000000000000000815250816000908051906020019062000096929190620001a6565b508060019080519060200190620000af929190620001a6565b505050620000d2620000c6620000d860201b60201c565b620000e060201b60201c565b620002bb565b600033905090565b6000600760009054906101000a900473ffffffffffffffffffffffffffffffffffffffff16905081600760006101000a81548173ffffffffffffffffffffffffffffffffffffffff021916908373ffffffffffffffffffffffffffffffffffffffff1602179055508173ffffffffffffffffffffffffffffffffffffffff168173ffffffffffffffffffffffffffffffffffffffff167f8be0079c531659141344cd1fd0a4f28419497f9722a3daafe3b4186f6b6457e060405160405180910390a35050565b828054620001b49062000285565b90600052602060002090601f016020900481019282620001d8576000855562000224565b82601f10620001f357805160ff191683800117855562000224565b8280016001018555821562000224579182015b828111156200022357825182559160200191906001019062000206565b5b50905062000233919062000237565b5090565b5b808211156200025257600081600090555060010162000238565b5090565b7f4e487b7100000000000000000000000000000000000000000000000000000000600052602260045260246000fd5b600060028204905060018216806200029e57607f821691505b60208210811415620002b557620002b462000256565b5b50919050565b612d0e80620002cb6000396000f3fe608060405234801561001057600080fd5b506004361061010b5760003560e01c806370a08231116100a2578063a22cb46511610071578063a22cb465146102b8578063b88d4fde146102d4578063c87b56dd146102f0578063e985e9c514610320578063f2fde38b146103505761010b565b806370a0823114610242578063715018a6146102725780638da5cb5b1461027c57806395d89b411461029a5761010b565b8063095ea7b3116100de578063095ea7b3146101be57806323b872dd146101da57806342842e0e146101f65780636352211e146102125761010b565b806301ffc9a71461011057806306fdde0314610140578063081812fc1461015e57806308598df01461018e575b600080fd5b61012a60048036038101906101259190611d60565b61036c565b6040516101379190611da8565b60405180910390f35b6101486103cd565b6040516101559190611e5c565b60405180910390f35b61017860048036038101906101739190611eb4565b61045f565b6040516101859190611f22565b60405180910390f35b6101a860048036038101906101a3919061209e565b6104a5565b6040516101b5919061211c565b60405180910390f35b6101d860048036038101906101d39190612137565b610538565b005b6101f460048036038101906101ef9190612177565b610650565b005b610210600480360381019061020b9190612177565b6106b0565b005b61022c60048036038101906102279190611eb4565b6106d0565b6040516102399190611f22565b60405180910390f35b61025c600480360381019061025791906121ca565b610757565b604051610269919061211c565b60405180910390f35b61027a61080f565b005b610284610823565b6040516102919190611f22565b60405180910390f35b6102a261084d565b6040516102af9190611e5c565b60405180910390f35b6102d260048036038101906102cd9190612223565b6108df565b005b6102ee60048036038101906102e99190612304565b6108f5565b005b61030a60048036038101906103059190611eb4565b610957565b6040516103179190611e5c565b60405180910390f35b61033a60048036038101906103359190612387565b610a6a565b6040516103479190611da8565b60405180910390f35b61036a600480360381019061036591906121ca565b610afe565b005b6000634906490660e01b7bffffffffffffffffffffffffffffffffffffffffffffffffffffffff1916827bffffffffffffffffffffffffffffffffffffffffffffffffffffffff191614806103c657506103c582610b82565b5b9050919050565b6060600080546103dc906123f6565b80601f0160208091040260200160405190810160405280929190818152602001828054610408906123f6565b80156104555780601f1061042a57610100808354040283529160200191610455565b820191906000526020600020905b81548152906001019060200180831161043857829003601f168201915b5050505050905090565b600061046a82610c64565b6004600083815260200190815260200160002060009054906101000a900473ffffffffffffffffffffffffffffffffffffffff169050919050565b60006104af610caf565b6104b96008610d2d565b60006104c56008610d43565b90506104d18582610d51565b604051806040016040528085815260200184815250600960008381526020019081526020016000206000820151816000019080519060200190610515929190611c51565b506020820151816001015590505061052d8185610f6f565b809150509392505050565b6000610543826106d0565b90508073ffffffffffffffffffffffffffffffffffffffff168373ffffffffffffffffffffffffffffffffffffffff1614156105b4576040517f08c379a00000000000000000000000000000000000000000000000000000000081526004016105ab9061249a565b60405180910390fd5b8073ffffffffffffffffffffffffffffffffffffffff166105d361101a565b73ffffffffffffffffffffffffffffffffffffffff1614806106025750610601816105fc61101a565b610a6a565b5b610641576040517f08c379a00000000000000000000000000000000000000000000000000000000081526004016106389061252c565b60405180910390fd5b61064b8383611022565b505050565b61066161065b61101a565b826110db565b6106a0576040517f08c379a0000000000000000000000000000000000000000000000000000000008152600401610697906125be565b60405180910390fd5b6106ab838383611170565b505050565b6106cb838383604051806020016040528060008152506108f5565b505050565b6000806106dc8361146a565b9050600073ffffffffffffffffffffffffffffffffffffffff168173ffffffffffffffffffffffffffffffffffffffff16141561074e576040517f08c379a00000000000000000000000000000000000000000000000000000000081526004016107459061262a565b60405180910390fd5b80915050919050565b60008073ffffffffffffffffffffffffffffffffffffffff168273ffffffffffffffffffffffffffffffffffffffff1614156107c8576040517f08c379a00000000000000000000000000000000000000000000000000000000081526004016107bf906126bc565b60405180910390fd5b600360008373ffffffffffffffffffffffffffffffffffffffff1673ffffffffffffffffffffffffffffffffffffffff168152602001908152602001600020549050919050565b610817610caf565b61082160006114a7565b565b6000600760009054906101000a900473ffffffffffffffffffffffffffffffffffffffff16905090565b60606001805461085c906123f6565b80601f0160208091040260200160405190810160405280929190818152602001828054610888906123f6565b80156108d55780601f106108aa576101008083540402835291602001916108d5565b820191906000526020600020905b8154815290600101906020018083116108b857829003601f168201915b5050505050905090565b6108f16108ea61101a565b838361156d565b5050565b61090661090061101a565b836110db565b610945576040517f08c379a000000000000000000000000000000000000000000000000000000000815260040161093c906125be565b60405180910390fd5b610951848484846116da565b50505050565b606061096282610c64565b6000600660008481526020019081526020016000208054610982906123f6565b80601f01602080910402602001604051908101604052809291908181526020018280546109ae906123f6565b80156109fb5780601f106109d0576101008083540402835291602001916109fb565b820191906000526020600020905b8154815290600101906020018083116109de57829003601f168201915b505050505090506000610a0c611736565b9050600081511415610a22578192505050610a65565b600082511115610a57578082604051602001610a3f929190612718565b60405160208183030381529060405292505050610a65565b610a608461174d565b925050505b919050565b6000600560008473ffffffffffffffffffffffffffffffffffffffff1673ffffffffffffffffffffffffffffffffffffffff16815260200190815260200160002060008373ffffffffffffffffffffffffffffffffffffffff1673ffffffffffffffffffffffffffffffffffffffff16815260200190815260200160002060009054906101000a900460ff16905092915050565b610b06610caf565b600073ffffffffffffffffffffffffffffffffffffffff168173ffffffffffffffffffffffffffffffffffffffff161415610b76576040517f08c379a0000000000000000000000000000000000000000000000000000000008152600401610b6d906127ae565b60405180910390fd5b610b7f816114a7565b50565b60007f80ac58cd000000000000000000000000000000000000000000000000000000007bffffffffffffffffffffffffffffffffffffffffffffffffffffffff1916827bffffffffffffffffffffffffffffffffffffffffffffffffffffffff19161480610c4d57507f5b5e139f000000000000000000000000000000000000000000000000000000007bffffffffffffffffffffffffffffffffffffffffffffffffffffffff1916827bffffffffffffffffffffffffffffffffffffffffffffffffffffffff1916145b80610c5d5750610c5c826117b5565b5b9050919050565b610c6d8161181f565b610cac576040517f08c379a0000000000000000000000000000000000000000000000000000000008152600401610ca39061262a565b60405180910390fd5b50565b610cb761101a565b73ffffffffffffffffffffffffffffffffffffffff16610cd5610823565b73ffffffffffffffffffffffffffffffffffffffff1614610d2b576040517f08c379a0000000000000000000000000000000000000000000000000000000008152600401610d229061281a565b60405180910390fd5b565b6001816000016000828254019250508190555050565b600081600001549050919050565b600073ffffffffffffffffffffffffffffffffffffffff168273ffffffffffffffffffffffffffffffffffffffff161415610dc1576040517f08c379a0000000000000000000000000000000000000000000000000000000008152600401610db890612886565b60405180910390fd5b610dca8161181f565b15610e0a576040517f08c379a0000000000000000000000000000000000000000000000000000000008152600401610e01906128f2565b60405180910390fd5b610e18600083836001611860565b610e218161181f565b15610e61576040517f08c379a0000000000000000000000000000000000000000000000000000000008152600401610e58906128f2565b60405180910390fd5b6001600360008473ffffffffffffffffffffffffffffffffffffffff1673ffffffffffffffffffffffffffffffffffffffff16815260200190815260200160002060008282540192505081905550816002600083815260200190815260200160002060006101000a81548173ffffffffffffffffffffffffffffffffffffffff021916908373ffffffffffffffffffffffffffffffffffffffff160217905550808273ffffffffffffffffffffffffffffffffffffffff16600073ffffffffffffffffffffffffffffffffffffffff167fddf252ad1be2c89b69c2b068fc378daa952ba7f163c4a11628f55a4df523b3ef60405160405180910390a4610f6b600083836001611866565b5050565b610f788261181f565b610fb7576040517f08c379a0000000000000000000000000000000000000000000000000000000008152600401610fae90612984565b60405180910390fd5b80600660008481526020019081526020016000209080519060200190610fde929190611c51565b507ff8e1a15aba9398e019f0b49df1a4fde98ee17ae345cb5f6b5e2c27f5033e8ce78260405161100e919061211c565b60405180910390a15050565b600033905090565b816004600083815260200190815260200160002060006101000a81548173ffffffffffffffffffffffffffffffffffffffff021916908373ffffffffffffffffffffffffffffffffffffffff160217905550808273ffffffffffffffffffffffffffffffffffffffff16611095836106d0565b73ffffffffffffffffffffffffffffffffffffffff167f8c5be1e5ebec7d5bd14f71427d1e84f3dd0314c0f7b2291e5b200ac8c7c3b92560405160405180910390a45050565b6000806110e7836106d0565b90508073ffffffffffffffffffffffffffffffffffffffff168473ffffffffffffffffffffffffffffffffffffffff16148061112957506111288185610a6a565b5b8061116757508373ffffffffffffffffffffffffffffffffffffffff1661114f8461045f565b73ffffffffffffffffffffffffffffffffffffffff16145b91505092915050565b8273ffffffffffffffffffffffffffffffffffffffff16611190826106d0565b73ffffffffffffffffffffffffffffffffffffffff16146111e6576040517f08c379a00000000000000000000000000000000000000000000000000000000081526004016111dd90612a16565b60405180910390fd5b600073ffffffffffffffffffffffffffffffffffffffff168273ffffffffffffffffffffffffffffffffffffffff161415611256576040517f08c379a000000000000000000000000000000000000000000000000000000000815260040161124d90612aa8565b60405180910390fd5b6112638383836001611860565b8273ffffffffffffffffffffffffffffffffffffffff16611283826106d0565b73ffffffffffffffffffffffffffffffffffffffff16146112d9576040517f08c379a00000000000000000000000000000000000000000000000000000000081526004016112d090612a16565b60405180910390fd5b6004600082815260200190815260200160002060006101000a81549073ffffffffffffffffffffffffffffffffffffffff02191690556001600360008573ffffffffffffffffffffffffffffffffffffffff1673ffffffffffffffffffffffffffffffffffffffff168152602001908152602001600020600082825403925050819055506001600360008473ffffffffffffffffffffffffffffffffffffffff1673ffffffffffffffffffffffffffffffffffffffff16815260200190815260200160002060008282540192505081905550816002600083815260200190815260200160002060006101000a81548173ffffffffffffffffffffffffffffffffffffffff021916908373ffffffffffffffffffffffffffffffffffffffff160217905550808273ffffffffffffffffffffffffffffffffffffffff168473ffffffffffffffffffffffffffffffffffffffff167fddf252ad1be2c89b69c2b068fc378daa952ba7f163c4a11628f55a4df523b3ef60405160405180910390a46114658383836001611866565b505050565b60006002600083815260200190815260200160002060009054906101000a900473ffffffffffffffffffffffffffffffffffffffff169050919050565b6000600760009054906101000a900473ffffffffffffffffffffffffffffffffffffffff16905081600760006101000a81548173ffffffffffffffffffffffffffffffffffffffff021916908373ffffffffffffffffffffffffffffffffffffffff1602179055508173ffffffffffffffffffffffffffffffffffffffff168173ffffffffffffffffffffffffffffffffffffffff167f8be0079c531659141344cd1fd0a4f28419497f9722a3daafe3b4186f6b6457e060405160405180910390a35050565b8173ffffffffffffffffffffffffffffffffffffffff168373ffffffffffffffffffffffffffffffffffffffff1614156115dc576040517f08c379a00000000000000000000000000000000000000000000000000000000081526004016115d390612b14565b60405180910390fd5b80600560008573ffffffffffffffffffffffffffffffffffffffff1673ffffffffffffffffffffffffffffffffffffffff16815260200190815260200160002060008473ffffffffffffffffffffffffffffffffffffffff1673ffffffffffffffffffffffffffffffffffffffff16815260200190815260200160002060006101000a81548160ff0219169083151502179055508173ffffffffffffffffffffffffffffffffffffffff168373ffffffffffffffffffffffffffffffffffffffff167f17307eab39ab6107e8899845ad3d59bd9653f200f220920489ca2b5937696c31836040516116cd9190611da8565b60405180910390a3505050565b6116e5848484611170565b6116f18484848461186c565b611730576040517f08c379a000000000000000000000000000000000000000000000000000000000815260040161172790612ba6565b60405180910390fd5b50505050565b606060405180602001604052806000815250905090565b606061175882610c64565b6000611762611736565b9050600081511161178257604051806020016040528060008152506117ad565b8061178c84611a03565b60405160200161179d929190612718565b6040516020818303038152906040525b915050919050565b60007f01ffc9a7000000000000000000000000000000000000000000000000000000007bffffffffffffffffffffffffffffffffffffffffffffffffffffffff1916827bffffffffffffffffffffffffffffffffffffffffffffffffffffffff1916149050919050565b60008073ffffffffffffffffffffffffffffffffffffffff166118418361146a565b73ffffffffffffffffffffffffffffffffffffffff1614159050919050565b50505050565b50505050565b600061188d8473ffffffffffffffffffffffffffffffffffffffff16611adb565b156119f6578373ffffffffffffffffffffffffffffffffffffffff1663150b7a026118b661101a565b8786866040518563ffffffff1660e01b81526004016118d89493929190612c1b565b602060405180830381600087803b1580156118f257600080fd5b505af192505050801561192357506040513d601f19601f820116820180604052508101906119209190612c7c565b60015b6119a6573d8060008114611953576040519150601f19603f3d011682016040523d82523d6000602084013e611958565b606091505b5060008151141561199e576040517f08c379a000000000000000000000000000000000000000000000000000000000815260040161199590612ba6565b60405180910390fd5b805181602001fd5b63150b7a0260e01b7bffffffffffffffffffffffffffffffffffffffffffffffffffffffff1916817bffffffffffffffffffffffffffffffffffffffffffffffffffffffff1916149150506119fb565b600190505b949350505050565b606060006001611a1284611afe565b01905060008167ffffffffffffffff811115611a3157611a30611f73565b5b6040519080825280601f01601f191660200182016040528015611a635781602001600182028036833780820191505090505b509050600082602001820190505b600115611ad0578080600190039150507f3031323334353637383961626364656600000000000000000000000000000000600a86061a8153600a8581611aba57611ab9612ca9565b5b0494506000851415611acb57611ad0565b611a71565b819350505050919050565b6000808273ffffffffffffffffffffffffffffffffffffffff163b119050919050565b600080600090507a184f03e93ff9f4daa797ed6e38ed64bf6a1f0100000000000000008310611b5c577a184f03e93ff9f4daa797ed6e38ed64bf6a1f0100000000000000008381611b5257611b51612ca9565b5b0492506040810190505b6d04ee2d6d415b85acef81000000008310611b99576d04ee2d6d415b85acef81000000008381611b8f57611b8e612ca9565b5b0492506020810190505b662386f26fc100008310611bc857662386f26fc100008381611bbe57611bbd612ca9565b5b0492506010810190505b6305f5e1008310611bf1576305f5e1008381611be757611be6612ca9565b5b0492506008810190505b6127108310611c16576127108381611c0c57611c0b612ca9565b5b0492506004810190505b60648310611c395760648381611c2f57611c2e612ca9565b5b0492506002810190505b600a8310611c48576001810190505b80915050919050565b828054611c5d906123f6565b90600052602060002090601f016020900481019282611c7f5760008555611cc6565b82601f10611c9857805160ff1916838001178555611cc6565b82800160010185558215611cc6579182015b82811115611cc5578251825591602001919060010190611caa565b5b509050611cd39190611cd7565b5090565b5b80821115611cf0576000816000905550600101611cd8565b5090565b6000604051905090565b600080fd5b600080fd5b60007fffffffff0000000000000000000000000000000000000000000000000000000082169050919050565b611d3d81611d08565b8114611d4857600080fd5b50565b600081359050611d5a81611d34565b92915050565b600060208284031215611d7657611d75611cfe565b5b6000611d8484828501611d4b565b91505092915050565b60008115159050919050565b611da281611d8d565b82525050565b6000602082019050611dbd6000830184611d99565b92915050565b600081519050919050565b600082825260208201905092915050565b60005b83811015611dfd578082015181840152602081019050611de2565b83811115611e0c576000848401525b50505050565b6000601f19601f8301169050919050565b6000611e2e82611dc3565b611e388185611dce565b9350611e48818560208601611ddf565b611e5181611e12565b840191505092915050565b60006020820190508181036000830152611e768184611e23565b905092915050565b6000819050919050565b611e9181611e7e565b8114611e9c57600080fd5b50565b600081359050611eae81611e88565b92915050565b600060208284031215611eca57611ec9611cfe565b5b6000611ed884828501611e9f565b91505092915050565b600073ffffffffffffffffffffffffffffffffffffffff82169050919050565b6000611f0c82611ee1565b9050919050565b611f1c81611f01565b82525050565b6000602082019050611f376000830184611f13565b92915050565b611f4681611f01565b8114611f5157600080fd5b50565b600081359050611f6381611f3d565b92915050565b600080fd5b600080fd5b7f4e487b7100000000000000000000000000000000000000000000000000000000600052604160045260246000fd5b611fab82611e12565b810181811067ffffffffffffffff82111715611fca57611fc9611f73565b5b80604052505050565b6000611fdd611cf4565b9050611fe98282611fa2565b919050565b600067ffffffffffffffff82111561200957612008611f73565b5b61201282611e12565b9050602081019050919050565b82818337600083830152505050565b600061204161203c84611fee565b611fd3565b90508281526020810184848401111561205d5761205c611f6e565b5b61206884828561201f565b509392505050565b600082601f83011261208557612084611f69565b5b813561209584826020860161202e565b91505092915050565b6000806000606084860312156120b7576120b6611cfe565b5b60006120c586828701611f54565b935050602084013567ffffffffffffffff8111156120e6576120e5611d03565b5b6120f286828701612070565b925050604061210386828701611e9f565b9150509250925092565b61211681611e7e565b82525050565b6000602082019050612131600083018461210d565b92915050565b6000806040838503121561214e5761214d611cfe565b5b600061215c85828601611f54565b925050602061216d85828601611e9f565b9150509250929050565b6000806000606084860312156121905761218f611cfe565b5b600061219e86828701611f54565b93505060206121af86828701611f54565b92505060406121c086828701611e9f565b9150509250925092565b6000602082840312156121e0576121df611cfe565b5b60006121ee84828501611f54565b91505092915050565b61220081611d8d565b811461220b57600080fd5b50565b60008135905061221d816121f7565b92915050565b6000806040838503121561223a57612239611cfe565b5b600061224885828601611f54565b92505060206122598582860161220e565b9150509250929050565b600067ffffffffffffffff82111561227e5761227d611f73565b5b61228782611e12565b9050602081019050919050565b60006122a76122a284612263565b611fd3565b9050828152602081018484840111156122c3576122c2611f6e565b5b6122ce84828561201f565b509392505050565b600082601f8301126122eb576122ea611f69565b5b81356122fb848260208601612294565b91505092915050565b6000806000806080858703121561231e5761231d611cfe565b5b600061232c87828801611f54565b945050602061233d87828801611f54565b935050604061234e87828801611e9f565b925050606085013567ffffffffffffffff81111561236f5761236e611d03565b5b61237b878288016122d6565b91505092959194509250565b6000806040838503121561239e5761239d611cfe565b5b60006123ac85828601611f54565b92505060206123bd85828601611f54565b9150509250929050565b7f4e487b7100000000000000000000000000000000000000000000000000000000600052602260045260246000fd5b6000600282049050600182168061240e57607f821691505b60208210811415612422576124216123c7565b5b50919050565b7f4552433732313a20617070726f76616c20746f2063757272656e74206f776e6560008201527f7200000000000000000000000000000000000000000000000000000000000000602082015250565b6000612484602183611dce565b915061248f82612428565b604082019050919050565b600060208201905081810360008301526124b381612477565b9050919050565b7f4552433732313a20617070726f76652063616c6c6572206973206e6f7420746f60008201527f6b656e206f776e6572206f7220617070726f76656420666f7220616c6c000000602082015250565b6000612516603d83611dce565b9150612521826124ba565b604082019050919050565b6000602082019050818103600083015261254581612509565b9050919050565b7f4552433732313a2063616c6c6572206973206e6f7420746f6b656e206f776e6560008201527f72206f7220617070726f76656400000000000000000000000000000000000000602082015250565b60006125a8602d83611dce565b91506125b38261254c565b604082019050919050565b600060208201905081810360008301526125d78161259b565b9050919050565b7f4552433732313a20696e76616c696420746f6b656e2049440000000000000000600082015250565b6000612614601883611dce565b915061261f826125de565b602082019050919050565b6000602082019050818103600083015261264381612607565b9050919050565b7f4552433732313a2061646472657373207a65726f206973206e6f74206120766160008201527f6c6964206f776e65720000000000000000000000000000000000000000000000602082015250565b60006126a6602983611dce565b91506126b18261264a565b604082019050919050565b600060208201905081810360008301526126d581612699565b9050919050565b600081905092915050565b60006126f282611dc3565b6126fc81856126dc565b935061270c818560208601611ddf565b80840191505092915050565b600061272482856126e7565b915061273082846126e7565b91508190509392505050565b7f4f776e61626c653a206e6577206f776e657220697320746865207a65726f206160008201527f6464726573730000000000000000000000000000000000000000000000000000602082015250565b6000612798602683611dce565b91506127a38261273c565b604082019050919050565b600060208201905081810360008301526127c78161278b565b9050919050565b7f4f776e61626c653a2063616c6c6572206973206e6f7420746865206f776e6572600082015250565b6000612804602083611dce565b915061280f826127ce565b602082019050919050565b60006020820190508181036000830152612833816127f7565b9050919050565b7f4552433732313a206d696e7420746f20746865207a65726f2061646472657373600082015250565b6000612870602083611dce565b915061287b8261283a565b602082019050919050565b6000602082019050818103600083015261289f81612863565b9050919050565b7f4552433732313a20746f6b656e20616c7265616479206d696e74656400000000600082015250565b60006128dc601c83611dce565b91506128e7826128a6565b602082019050919050565b6000602082019050818103600083015261290b816128cf565b9050919050565b7f45524337323155524953746f726167653a2055524920736574206f66206e6f6e60008201527f6578697374656e7420746f6b656e000000000000000000000000000000000000602082015250565b600061296e602e83611dce565b915061297982612912565b604082019050919050565b6000602082019050818103600083015261299d81612961565b9050919050565b7f4552433732313a207472616e736665722066726f6d20696e636f72726563742060008201527f6f776e6572000000000000000000000000000000000000000000000000000000602082015250565b6000612a00602583611dce565b9150612a0b826129a4565b604082019050919050565b60006020820190508181036000830152612a2f816129f3565b9050919050565b7f4552433732313a207472616e7366657220746f20746865207a65726f2061646460008201527f7265737300000000000000000000000000000000000000000000000000000000602082015250565b6000612a92602483611dce565b9150612a9d82612a36565b604082019050919050565b60006020820190508181036000830152612ac181612a85565b9050919050565b7f4552433732313a20617070726f766520746f2063616c6c657200000000000000600082015250565b6000612afe601983611dce565b9150612b0982612ac8565b602082019050919050565b60006020820190508181036000830152612b2d81612af1565b9050919050565b7f4552433732313a207472616e7366657220746f206e6f6e20455243373231526560008201527f63656976657220696d706c656d656e7465720000000000000000000000000000602082015250565b6000612b90603283611dce565b9150612b9b82612b34565b604082019050919050565b60006020820190508181036000830152612bbf81612b83565b9050919050565b600081519050919050565b600082825260208201905092915050565b6000612bed82612bc6565b612bf78185612bd1565b9350612c07818560208601611ddf565b612c1081611e12565b840191505092915050565b6000608082019050612c306000830187611f13565b612c3d6020830186611f13565b612c4a604083018561210d565b8181036060830152612c5c8184612be2565b905095945050505050565b600081519050612c7681611d34565b92915050565b600060208284031215612c9257612c91611cfe565b5b6000612ca084828501612c67565b91505092915050565b7f4e487b7100000000000000000000000000000000000000000000000000000000600052601260045260246000fdfea2646970667358221220dcd17656a57dfff08d7761b2777a1903baa6984165bdbeddee91a6983edc106864736f6c63430008090033",
  "linkReferences": {},
  "deployedLinkReferences": {}
}